:020000040800F2
:100000000000022049210008E5200008E720000840
:10001000E9200008EB200008ED20000800000000A7
:10002000000000000000000000000000EF200008B9
:10003000F120000800000000F3200008F52000086F
:1000400099210008992100089921000899210008A8
:100050009921000899210008992100089921000898
:100060009921000899210008992100089921000888
:100070009921000899210008992100089921000878
:100080009921000899210008992100089921000868
:100090009921000899210008992100089921000858
:1000A0009921000899210008992100089921000848
:1000B0009921000899210008992100089921000838
:1000C0009921000899210008992100089921000828
:1000D0009921000899210008992100089921000818
:1000E0009921000899210008992100089921000808
:1000F00099210008992100089921000899210008F8
:1001000099210008992100089921000899210008E7
:1001100099210008992100089921000899210008D7
:1001200099210008992100089921000899210008C7
:1001300099210008992100089921000899210008B7
:1001400099210008992100089921000899210008A7
:100150009921000899210008992100089921000897
:100160009921000899210008992100089921000887
:100170009921000899210008992100080000000039
:080180009921000899210008F3
:1001900010B5054C237833B9044B13B10448AFF3C1
:1001A00000800123237010BD7400002000000000B7
:1001B0003C2A000808B5034B1BB103490348AFF3C1
:1001C000008008BD00000000780000203C2A0008E4
:1001D00001F0FF01102A2BDB10F0070F08D010F8F8
:1001E000013B013A8B422DD010F0070F42B3F6D1FC
:1001F000F0B441EA012141EA014122F007047FF015
:1002000000070023F0E80256083C85EA010586EA6B
:10021000010685FA47F5A3FA87F586FA47F6A5FAA7
:1002200087F68EB9EED1F0BC01F0FF0102F00702B3
:1002300032B110F8013B013A83EA010313B1F8D15E
:100240000020704701387047002D06BF354603383F
:10025000073815F0010F07D1013015F4807F02BF78
:10026000013015F4C03F0130F0BC0138704700BFC9
:1002700081F0004102E000BF83F0004330B54FEA57
:1002800041044FEA430594EA050F08BF90EA020FC4
:100290001FBF54EA000C55EA020C7FEA645C7FEA57
:1002A000655C00F0E2804FEA5454D4EB5555B8BF7A
:1002B0006D420CDD2C4480EA020281EA030382EAEB
:1002C000000083EA010180EA020281EA0303362D7D
:1002D00088BF30BD11F0004F4FEA01314FF4801C50
:1002E0004CEA113102D0404261EB410113F0004F62
:1002F0004FEA03334CEA133302D0524263EB430319
:1003000094EA050F00F0A780A4F10104D5F1200EB6
:100310000DDB02FA0EFC22FA05F2801841F1000111
:1003200003FA0EF2801843FA05F359410EE0A5F1E5
:1003300020050EF1200E012A03FA0EFC28BF4CF016
:10034000020C43FA05F3C01851EBE37101F00045CC
:1003500007D54FF0000EDCF1000C7EEB00006EEBD9
:100360000101B1F5801F1BD3B1F5001F0CD3490863
:100370005FEA30004FEA3C0C04F101044FEA4452BA
:1003800012F5800F80F09A80BCF1004F08BF5FEA41
:10039000500C50F1000041EB045141EA050130BD21
:1003A0005FEA4C0C404141EB010111F4801FA4F1C4
:1003B0000104E9D191F0000F04BF01460020B1FA19
:1003C00081F308BF2033A3F10B03B3F120020CDA51
:1003D0000C3208DD02F1140CC2F10C0201FA0CF02F
:1003E00021FA02F10CE002F11402D8BFC2F1200C94
:1003F00001FA02F120FA0CFCDCBF41EA0C0190404A
:10040000E41AA2BF01EB0451294330BD6FEA040492
:100410001F3C1CDA0C340EDC04F11404C4F120027D
:1004200020FA04F001FA02F340EA030021FA04F38F
:1004300045EA030130BDC4F10C04C4F1200220FAE6
:1004400002F001FA04F340EA0300294630BD21FA24
:1004500004F0294630BD94F0000F83F4801306BFEA
:1004600081F480110134013D4EE77FEA645C18BFDE
:100470007FEA655C29D094EA050F08BF90EA020F75
:1004800005D054EA000C04BF1946104630BD91EA6D
:10049000030F1EBF0021002030BD5FEA545C05D170
:1004A0004000494128BF41F0004130BD14F58004AF
:1004B0003CBF01F5801130BD01F0004545F0FE4123
:1004C00041F470014FF0000030BD7FEA645C1ABF58
:1004D000194610467FEA655C1CBF0B46024650EA8F
:1004E000013406BF52EA033591EA030F41F40021BB
:1004F00030BD00BF90F0000F04BF0021704730B541
:100500004FF4806404F132044FF000054FF0000115
:1005100050E700BF90F0000F04BF0021704730B5D6
:100520004FF4806404F1320410F0004548BF4042AB
:100530004FF000013EE700BF42004FEAE2014FEA00
:1005400031014FEA02701FBF12F07F4393F07F4FDB
:1005500081F06051704792F0000F14BF93F07F4F0D
:10056000704730B54FF4607401F0004521F0004150
:1005700020E700BF50EA010208BF704730B54FF0D6
:1005800000050AE050EA010208BF704730B511F0DB
:10059000004502D5404261EB41014FF4806404F113
:1005A00032045FEA915C3FF4DCAE4FF003025FEA95
:1005B000DC0C18BF03325FEADC0C18BF033202EB1D
:1005C000DC02C2F1200300FA03FC20FA02F001FA77
:1005D00003FE40EA0E0021FA02F11444C1E600BF16
:1005E00070B54FF0FF0C4CF4E06C1CEA11541DBFC9
:1005F0001CEA135594EA0C0F95EA0C0F00F0DEF894
:100600002C4481EA030621EA4C5123EA4C5350EA78
:10061000013518BF52EA033541F4801143F48013C9
:1006200038D0A0FB02CE4FF00005E1FB02E506F05A
:100630000042E0FB03E54FF00006E1FB03569CF0AF
:10064000000F18BF4EF0010EA4F1FF04B6F5007FB5
:1006500064F5407404D25FEA4E0E6D4146EB060627
:1006600042EAC62141EA55514FEAC52040EA5E50B0
:100670004FEACE2EB4F1FD0C88BFBCF5E06F1ED85A
:10068000BEF1004F08BF5FEA500E50F1000041EB91
:10069000045170BD06F0004646EA010140EA02003E
:1006A00081EA0301B4EB5C04C2BFD4EB0C0541EA60
:1006B000045170BD41F480114FF0000E013C00F375
:1006C000AB8014F1360FDEBF002001F0004170BD99
:1006D000C4F10004203C35DA0C341BDC04F11404B2
:1006E000C4F1200500FA05F320FA04F001FA05F23E
:1006F00040EA020001F0004221F0004110EBD3700B
:1007000021FA04F642EB06015EEA430E08BF20EA36
:10071000D37070BDC4F10C04C4F1200500FA04F3D9
:1007200020FA05F001FA04F240EA020001F000416B
:1007300010EBD37041F100015EEA430E08BF20EADE
:10074000D37070BDC4F1200500FA05F24EEA020E26
:1007500020FA04F301FA05F243EA020321FA04F055
:1007600001F0004121FA04F220EA020000EBD3700C
:100770005EEA430E08BF20EAD37070BD94F0000F0C
:100780000FD101F00046400041EB010111F4801F40
:1007900008BF013CF7D041EA060195F0000F18BFF1
:1007A000704703F00046520043EB030313F4801F2D
:1007B00008BF013DF7D043EA0603704794EA0C0FE7
:1007C0000CEA135518BF95EA0C0F0CD050EA4106FD
:1007D00018BF52EA4306D1D181EA030101F000417A
:1007E0004FF0000070BD50EA410606BF10461946A2
:1007F00052EA430619D094EA0C0F02D150EA0136AE
:1008000013D195EA0C0F05D152EA03361CBF1046EE
:1008100019460AD181EA030101F0004141F0FE418D
:1008200041F470014FF0000070BD41F0FE4141F411
:10083000780170BD70B54FF0FF0C4CF4E06C1CEA11
:1008400011541DBF1CEA135594EA0C0F95EA0C0FC6
:1008500000F0A7F8A4EB050481EA030E52EA033581
:100860004FEA013100F088804FEA03334FF08055A2
:1008700045EA131343EA12634FEA022245EA1115CF
:1008800045EA10654FEA00260EF000419D4208BF80
:10089000964244F1FD0404F5407402D25B084FEA2D
:1008A0003202B61A65EB03055B084FEA32024FF4D9
:1008B00080104FF4002CB6EB020E75EB030E22BF36
:1008C000B61A754640EA0C005B084FEA3202B6EBF6
:1008D000020E75EB030E22BFB61A754640EA5C00A5
:1008E0005B084FEA3202B6EB020E75EB030E22BF35
:1008F000B61A754640EA9C005B084FEA3202B6EB36
:10090000020E75EB030E22BFB61A754640EADC00F4
:1009100055EA060E18D04FEA051545EA16754FEA56
:1009200006164FEAC30343EA52734FEAC2025FEA74
:100930001C1CC0D111F4801F0BD141EA00014FF003
:1009400000004FF0004CB6E711F4801F04BF0143D4
:100950000020B4F1FD0C88BFBCF5E06F3FF6AFAEF0
:10096000B5EB030C04BFB6EB020C5FEA500C50F180
:10097000000041EB045170BD0EF0004E4EEA113103
:1009800014EB5C04C2BFD4EB0C0541EA045170BD0A
:1009900041F480114FF0000E013C90E645EA060E4E
:1009A0008DE60CEA135594EA0C0F08BF95EA0C0F7C
:1009B0003FF43BAF94EA0C0F0AD150EA01347FF4C4
:1009C00034AF95EA0C0F7FF425AF104619462CE79B
:1009D00095EA0C0F06D152EA03353FF4FDAE1046FE
:1009E000194622E750EA410618BF52EA43067FF44F
:1009F000C5AE50EA41047FF40DAF52EA43057FF4DF
:100A0000EBAE12E74A0011D212F5001211D20DD549
:100A10006FF47873B3EB62520ED44FEAC12343F004
:100A2000004343EA505323FA02F070474FF00000AE
:100A3000704750EA013002D14FF0FF3070474FF05D
:100A40000000704753B94AB9002908BF00281CBFED
:100A50004FF0FF314FF0FF3000F07AB9ADF1080CE4
:100A60006DE904CE00F006F8DDF804E0DDE90223CC
:100A700004B070472DE9F0478C460D460446089EA9
:100A8000002B51D18A4217466DD9B2FA82FEBEF1CF
:100A9000000F0BD0CEF1200C01FA0EF520FA0CFC61
:100AA00002FA0EF74CEA050C00FA0EF44FEA174A68
:100AB000250CBCFBFAF81FFA87F90AFB18CC45EAAB
:100AC0000C4508FB09F3AB420AD9ED1908F1FF32D6
:100AD00080F02381AB4240F22081A8F102083D441E
:100AE000ED1AA4B2B5FBFAF00AFB105544EA05442E
:100AF00000FB09F9A14509D9E41900F1FF3380F0A1
:100B00000A81A14540F2078102383C44A4EB090464
:100B100040EA08400021002E61D024FA0EF40023A0
:100B200034607360BDE8F0878B4207D9002E54D043
:100B3000002186E821000846BDE8F087B3FA83F17A
:100B4000002940F08E80AB4202D3824200F2FA804C
:100B5000841A65EB03050120AC46002E3FD086E8E1
:100B60001010BDE8F08712B90127B7FBF2F7B7FA0A
:100B700087FEBEF1000F34D1EB1B3A0C1FFA87FC45
:100B80000121B3FBF2F8250C02FB183345EA0345BB
:100B90000CFB08F3AB4207D9ED1908F1FF3002D284
:100BA000AB4200F2D1808046ED1AA3B2B5FBF2F061
:100BB00002FB105543EA05440CFB00FCA44507D991
:100BC000E41900F1FF3302D2A44500F2B8801846C0
:100BD000A4EB0C0440EA08409DE731463046BDE8EE
:100BE000F087CEF1200405FA0EF307FA0EF720FA8B
:100BF00004F83A0C25FA04F448EA0308B4FBF2F1CD
:100C00004FEA184502FB11441FFA87FC45EA0445E8
:100C100001FB0CF3AB4200FA0EF409D9ED1901F116
:100C2000FF3080F08A80AB4240F2878002393D4439
:100C3000EB1A1FFA88F5B3FBF2F002FB103345EA1A
:100C4000034500FB0CF3AB4207D9ED1900F1FF3867
:100C50006FD2AB426DD902383D44EB1A40EA0141F4
:100C60008FE7C1F1200722FA07F88B4005FA01F45B
:100C700048EA030320FA07FE4FEA134CFD404EEA10
:100C8000040EB5FBFCF94FEA1E440CFB19551FFA84
:100C900083F844EA054509FB08F4AC4202FA01F284
:100CA00000FA01FA08D9ED1809F1FF3043D2AC423D
:100CB00041D9A9F102091D442D1B1FFA8EFEB5FB77
:100CC000FCF00CFB10554EEA054400FB08F8A0456B
:100CD00007D9E41800F1FF3529D2A04527D90238F9
:100CE0001C4440EA0940A4EB0804A0FB02894C45DF
:100CF000C6464D4615D312D056B1BAEB0E0364EB7F
:100D0000050404FA07F7CB401F43CC4037607460FA
:100D10000021BDE8F0871846F8E69046E0E6C245B7
:100D2000EAD2B8EB020E69EB03050138E4E7284686
:100D3000D7E7404691E78146BEE7014678E70238AB
:100D40003C4445E7084608E7A8F102083D442BE784
:100D5000704700BF38B50E4A0E4B054618784FF461
:100D60007A73B3FBF0F31068B0FBF3F000F052FAC3
:100D7000044658B90F2D09D8024629464FF0FF30D6
:100D800000F014FA044B20461D6038BD012038BD28
:100D90000C000020000000200400002008B50B4BD0
:100DA0001A6842F400721A601A6842F480621A608B
:100DB0001A6842F480721A60032000F0E5F90020FE
:100DC000FFF7C8FF01F03CF9002008BD003C0240DD
:100DD000034A044B11681B780B441360704700BF33
:100DE000BC00002000000020014B1868704700BFC5
:100DF000BC00002038B50446FFF7F6FF631C1CBF9B
:100E0000054B1B78054618BFE418FFF7EDFF401BA4
:100E10008442FAD838BD00BF0000002038B504462F
:100E2000002800F09B80056C25B901F029F9656464
:100E300084F83C50236CDB0600F18E80236C23F495
:100E4000885323F0020343F002032364444B5A689F
:100E500022F440325A605A6861680A435A60236833
:100E600021695A6822F480725A605A6842EA012263
:100E70005A605A68A16822F040725A605A680A4360
:100E80005A609A68E16822F400629A609A680A439C
:100E90009A603449A26A8A4252D0996821F07061FE
:100EA000996099680A439A609A68E16A22F0405210
:100EB0009A609A680A439A609A68217E22F0020238
:100EC0009A609A6842EA41029A6094F82020002AC7
:100ED0003ED05A68616A42F400625A605A6822F44D
:100EE00060425A605A68013942EA41325A60DA6A0D
:100EF000E16922F47002DA62DA6A013942EA0152E7
:100F0000DA629A6894F8301022F400729A609A6853
:100F100042EA41229A609A68616922F480629A608A
:100F20009A68002042EA81229A606064236C23F070
:100F3000030343F001032364002384F83C3038BDED
:100F40009A6822F070629A609A6822F04052B2E782
:100F50005A6822F40062C9E70120EDE7012038BD9C
:100F6000002301400100000F82B00023019390F89C
:100F70003C30012B61D0012380F83C3003689A6833
:100F8000D10705D59A68D20714D4002002B0704763
:100F90009A682B4942F001029A602A4A1268B2FB11
:100FA000F1F202EB42020192019A002AEAD0019A80
:100FB000013AF8E7026C22F4E06222F0010242F406
:100FC000807202645A68510541BF026C22F440529B
:100FD00042F480520264026C12F480521CBF426CD4
:100FE00022F006024264002280F83C206FF02202C8
:100FF0001A60154A516811F01F0F14491AD18B421B
:1010000006D001F580718B420BD15268D206BCD15B
:10101000986810F04050B8D19A6842F080429A60C7
:10102000B4E70B498B42B0D1526802F01F020F2A7D
:10103000EED9AAE78B42A8D1EAE70220A6E700BFD3
:1010400040420F000C00002000230140002001401E
:10105000002201400368D86C70470000F7B50023F8
:10106000019390F83C30012B00F083800D680468F8
:101070008A680123092D80F83C30AEB22AD906EBEC
:101080004603E7681E3B4FF0070E0EFA03FE27EA01
:101090000E07E760E76802FA03F33B43E3604A6840
:1010A000062A4FEA820325D81344676B591F1F2372
:1010B0008B4027EA03036363626B06FA01F1114375
:1010C00061632D4B9C4234D0002380F83C3018469D
:1010D00003B0F0BD276905EB45034FF0070E0EFA8C
:1010E00003FE27EA0E072761276902FA03F33B4351
:1010F0002361D4E70C2A0ED81344216BA3F12302F9
:101100001F23934021EA03032363236B06FA02F2B1
:101110001A432263D5E71344E16A413B1F229A40F8
:1011200021EA0202E262E26A06FA03F11143E16295
:10113000C7E7122D04D1114A536843F4800353606A
:10114000A5F11003012BBFD80C4A5368102D43F4AE
:1011500000035360B8D10A4B0A4A1B68B3FBF2F292
:101160000A2353430193019B002BADD0019B013B0C
:10117000F8E70220ACE700BF002001400023014057
:101180000C00002040420F00074AD36823F4E063BC
:101190001B041B0C43F0BF63000243F4003300F454
:1011A000E0600343D360704700ED00E0174B30B5BB
:1011B000DC68C4F30224C4F10703251D042B28BFF7
:1011C0000423062D4FF0010505FA03F303F1FF3365
:1011D0008CBF033C00241940A14005FA04F4013CF3
:1011E0002240002842EA01024FEA0212ADBF00F19C
:1011F000604000F00F00064B00F56140B5BFD2B271
:10120000D2B21A5480F8002330BD00BF00ED00E0D8
:1012100014ED00E00138B0F1807F0AD2064B074A96
:101220005860F02182F823100020072298601A608D
:1012300070470120704700BF10E000E000ED00E0C3
:101240002DE9F04F85B00B68DFF8AC81684ADFF814
:10125000AC91019300230124019D9C402540AC42A8
:1012600040F0B0804C6824F0100C0CF1FF36012ED9
:101270004FEA430E12D88768032606FA0EF627EACD
:101280000607CE6806FA0EF63E4386604768C4F34A
:10129000001627EA05079E403E4346600326C768BE
:1012A00006FA0EF6F64307EA060A8F6807FA0EF703
:1012B00047EA0A07BCF1020FC76016D14FEAD30A0A
:1012C00000EB8A0A03F0070BDAF820704FEA8B0B69
:1012D0004FF00F0C0CFA0BFC27EA0C0C0F6907FA05
:1012E0000BF747EA0C07CAF8207007683E4004F085
:1012F000030707FA0EFE4EEA06060660E60061D511
:101300004FF0000BCDF80CB0D8F84470394E47F4CC
:101310008047C8F84470D8F8447007F480470397B2
:10132000039F23F0030707F1804707F59C3703F07D
:10133000030CD7F808A04FEA8C0C4FF00F0E0EFAF2
:101340000CFEB0422AEA0E0E43D006F58066B0428B
:1013500041D006F58066B0423FD006F58066B042C7
:101360003DD006F58066B0423BD048453BD006F5FF
:101370000066B04239D006F58066B04214BF082638
:10138000072606FA0CF646EA0E06BE601668EF431C
:1013900014F4803F0CBF3E402E431660566814F490
:1013A000003F0CBF3E402E435660966814F4801FE9
:1013B0000CBF3E402E439660D668A40254BF3E4008
:1013C0002E43D6600133102B7FF445AF05B0BDE846
:1013D000F08F5E46D5E70126D3E70226D1E7032644
:1013E000CFE70426CDE70526CBE70626C9E700BFF1
:1013F000003C01400000024000380240001402405E
:101400000AB1816170470904FBE700002DE9F3414F
:10141000044608B901203FE00368DD0710D42368C3
:1014200098075AD423681A0700F19C8023685B0749
:1014300000F1BA80A069002840F01B8100202BE059
:10144000A44B9A6802F00C02042A07D09A6802F0B2
:101450000C02082A0AD15B68590207D59D4B1B680C
:101460009A03DCD56368002BD9D1D3E76368994D23
:10147000B3F5803F13D12B6843F480332B60FFF723
:10148000B3FC944D06462B689B03C8D4FFF7ACFC15
:10149000801B6428F7D9032002B0BDE8F081B3F5C2
:1014A000A02F04D12B6843F480232B60E3E72A6844
:1014B00022F480322A602A6822F480222A60002BDB
:1014C000DDD1FFF791FC06462B689F03A7D5FFF7F8
:1014D0008BFC801B6428F7D9DDE77E4B9A6812F0FD
:1014E0000C0F07D09A6802F00C02082A11D15B6831
:1014F0005E020ED4774B1A68950702D5E268012A7E
:1015000088D11A68216922F0F80242EAC1021A6001
:1015100088E7E268704BB2B101221A60FFF764FC01
:101520006C4D06462B68980707D52B68226923F077
:10153000F80343EAC2032B6074E7FFF755FC801BF6
:101540000228EFD9A7E71A60FFF74EFC614D064667
:101550002B6899077FF566AFFFF746FC801B0228D2
:10156000F6D998E762695D4B7AB101221A60FFF7FC
:101570003BFC584D06466B6F9F073FF557AFFFF793
:1015800033FC801B0228F6D985E71A60FFF72CFC94
:10159000504D06466B6F98077FF548AFFFF724FC68
:1015A000801B0228F6D976E74A4B1A6C12F080525B
:1015B00028D101921A6C42F080521A641B6C03F01D
:1015C00080530193019B0126454D2B68D9051BD5FE
:1015D000A368404D012B27D12B6F43F001032B67EC
:1015E000FFF702FC3B4D074641F288382B6F9B0703
:1015F00039D5002E3FF41EAF364A136C23F08053CA
:10160000136417E70026DFE72B6843F480732B6031
:10161000FFF7EAFB07462B68DA05D9D4FFF7E4FBAE
:10162000C01B0228F7D936E7052B04D12B6F43F0F6
:1016300004032B67D0E72A6F22F001022A672A6F82
:1016400022F004022A67002BCAD1FFF7CDFB41F23A
:10165000883807462B6F9807CBD5FFF7C5FBC01B13
:101660004045F7D917E7FFF7BFFBC01B4045BDD981
:1016700011E7184DAB6803F00C03082B47D0194E47
:1016800000230228336035D1FFF7AEFB07462B68F5
:10169000990129D4226AE3691343626A43EA8213F7
:1016A000E26A43EA0263A26A0A4C5208013A43EA38
:1016B00002436B6001233360FFF796FB0546236806
:1016C0009A013FF5BBAEFFF78FFB401B0228F6D90E
:1016D000E1E600BF0038024000004742800E47426A
:1016E0000070004060004742FFF77EFBC01B0228ED
:1016F000CDD9D0E6FFF778FB04462B689B017FF538
:101700009DAEFFF771FB001B0228F6D9C3E6012846
:101710003FF4C2AE6868E36900F480029A427FF445
:1017200079AE226A00F03F0393427FF473AE626A9F
:1017300047F6C073034093427FF46CAEA26A00F494
:10174000403393427FF466AEE36A00F07060C01AE3
:1017500018BF0120A0E600BF134908B58B6803F04D
:101760000C03042B03D0082B03D0104808BD1048ED
:1017700008BD4A684B68496813F4800314BF0C48DD
:101780000A48C1F3881118BF002302F03F02A1FBF1
:101790000001FFF757F9044B5B68C3F301430133C2
:1017A0005B00B0FBF3F008BD003802400024F400F9
:1017B00000127A002DE9F0410D46044610B90120CF
:1017C000BDE8F081444B1A6802F00F028A4229D327
:1017D00021688F072ED4C80741D43F4B1A6802F006
:1017E0000F02954267D3226851076DD4130707D5BE
:1017F0003A4A2169936823F4604343EAC103936042
:10180000FFF7AAFF354B364A9B68C3F30313D35C3B
:10181000D840344B1860344B1868FFF79BFA00200F
:10182000BDE8F081CAB21A701B6803F00F03994239
:10183000C5D1CDE7294B11F0040F1EBF9A6842F4C1
:10184000E0529A600E0742BF9A6842F460429A6082
:101850009A68A06822F0F00202439A60BBE76268CF
:101860001E4B012A1DD11B6813F4003FA7D01B4E4D
:10187000B36823F003031343B360FFF7B5FA41F2F3
:1018800088380746B368626803F00C03B3EB820F35
:10189000A3D0FFF7A9FAC01B4045F3D90320BDE848
:1018A000F081911E01291B6802D813F0007FDDE74B
:1018B00013F0020FDAE7EAB21A701B6803F00F03A5
:1018C0009D427FF47CAF8EE70449E0688B6823F487
:1018D000E05303438B6089E7003C0240003802403C
:1018E000D52A00080C00002004000020044B054A03
:1018F0009B68C3F38223D35C034A1068D8407047C7
:1019000000380240E52A00080C0000200F23036085
:101910000B4B9A6802F0030242609A6802F0F002F0
:1019200082609A6802F4E052C2609B68DB0803F4AC
:10193000E0530361034B1B6803F00F030B60704718
:1019400000380240003C0240074B0138D8621A6957
:1019500022F001021A611A6842F001021A601A6943
:10196000D207FCD5704700BF000400400000000013
:1019700010B586B0694601A8FFF7C8FF049B002B8D
:101980002CD1FFF7B3FFFEF7B5FD19A3D3E9002370
:10199000FEF726FE144A154C136C43F00203136441
:1019A000236823F010032360236823F001032360DE
:1019B000236823F004032360236843F008032360B3
:1019C000FFF720F809230138A062E3620123636175
:1019D000236923F00103236106B010BDFFF786FFE2
:1019E0004000D0E7AFF30080003802400004004020
:1019F0008DEDB5A0F7C6B03E38B50A4D0A4C298822
:101A000020680122FFF7FCFC0A20FFF79DFF2068F9
:101A100029880022FFF7F4FC3C20BDE83840FFF79E
:101A200093BF00BFA0000020AC0000202DE9F047CC
:101A3000434B1B78012B04464FEA10163DD1414D14
:101A4000414B00F0010219882868FFF7D9FC3F4B91
:101A50002868198804F00202FFF7D2FC3C4B286882
:101A6000198804F00402FFF7CBFC3A4B2868198868
:101A700004F00802FFF7C4FC374C384B2068198883
:101A800006F00102FFF7BCFC354B2068198806F010
:101A90000202FFF7B5FC334B2068198806F00402F8
:101AA000FFF7AEFC304B2068198806F00802FFF7FC
:101AB000A7FCBDE8F047FFF79FBF022B3ED1264DA4
:101AC000DFF898A0DFF89890BAF800102868DFF8DF
:101AD0009480254F06F00102FFF792FC06F0020207
:101AE000B9F800102868FFF78BFC06F00402B8F87C
:101AF00000102868FFF784FC06F00802398828687F
:101B0000FFF77EFCFFF778FF04F00102BAF800103F
:101B10002868FFF775FC04F00202B9F80010286885
:101B2000FFF76EFC04F00402B8F800102868FFF715
:101B300067FC04F0080239882868B8E7BDE8F08738
:101B40000A000020A4000020900000209200002045
:101B50009400002096000020A8000020980000209B
:101B60009A0000209C0000209E00002010B5064B2B
:101B70001988064B044600221868FFF741FC2046EE
:101B8000BDE81040FFF752BFA2000020AC000020CB
:101B90002DE9F047DFF8ECA0BDF82090CAF800006E
:101BA0002A48BDF8248001802949BDF828C00A8050
:101BB000284ABDF82CE01360274B0C9AA3F800903C
:101BC000264BBDF83470A3F80080254BBDF8386073
:101BD000A3F800C0234BBDF83C50A3F800E0224B13
:101BE000BDF840401A60214B1F80214B1E80214BC5
:101BF0001D80214B1C80FFF7BBFE204B01241C7075
:101C00001F4B382514201D70FFF7F4F83020FFF724
:101C1000ADFF0520FFF7EEF83020FFF7A7FF2046C5
:101C2000FFF7E8F83020FFF7A1FF2046FFF7E2F8C2
:101C30002846FFF79BFF0F20FFF798FF2046FFF78E
:101C400095FF0220BDE8F047FFF7D4B8A2000020BE
:101C5000A0000020A400002090000020920000209E
:101C60009400002096000020A8000020980000208A
:101C70009A0000209C0000209E0000200A00002006
:101C800009000020AC0000202DE9F0410A4FDFF8E8
:101C90002C80451E00F10F0415F8016F56B101228A
:101CA0003988D8F80000FFF7ABFB3046FFF7BEFEDF
:101CB000A542F1D1BDE8F081A2000020AC000020D7
:101CC000013901F00F0101280CBF41F0800041F003
:101CD000C000FFF74BBF8020FFF748BFC020FFF7D1
:101CE00045BF08B50120FFF741FF0320BDE80840CC
:101CF000FFF780B8034B187800F0FE001870FFF76C
:101D000035BF00BF080000201FB5024604496846E1
:101D100000F076FA6846FFF7B7FF05B05DF804FB00
:101D2000542A000830B595B03022002108A800F0F0
:101D30005FFA0021142203A800F05AFA00241C4B79
:101D400001941A6C42F080521A641B6C03F08053A9
:101D50000193019B174B02941A6842F480421A6067
:101D60001B680F9403F480430293029B01230B939F
:101D700010230C9308231093A8230225119308A87D
:101D80000723139308950E951295FFF73FFB0F233A
:101D900003934FF4A053069305214FF4805303A8F7
:101DA000049505940793FFF705FD15B030BD00BFFE
:101DB000003802400070004080B594B0FEF7EEFF9E
:101DC000FFF7B0FF142200210FA800F011FA002441
:101DD000884B0B941A6B884F8848894D42F001025A
:101DE0001A631A6B02F001020B920B9A0C941A6B95
:101DF00042F002021A631A6B02F002020C920C9A71
:101E00000D941A6B42F008021A631A6B02F0080272
:101E10000D920D9A0E941A6B42F010021A631B6B0E
:101E200003F0100322460E934FF470410E9BFFF710
:101E3000E7FA22464FF470613846FFF7E1FA22468E
:101E4000032170480126FFF7DBFA4FF470430FA916
:101E50006A480F93109611941294FFF7F1F94FF41A
:101E600070630FA938460F93109611941294FFF7E0
:101E7000E7F903230FA963480F9310961194129466
:101E8000FFF7DEF9214610220FA800F0B1F95E4AF3
:101E9000AC604FF4803385E80C0028465B4BAB62A6
:101EA0002C612E7685F82040EC62EC60EE6185F8BE
:101EB00030406E61FEF7B2FF0FA928460F941096CE
:101EC0001194FFF7CBF84FF4006308934FF480634D
:101ED00007934FF4007306934FF4807305934FF408
:101EE000004303934FF4804302934FF40053019354
:101EF0004FF48053009303F1804303F5FA33022239
:101F0000314640480497FFF743FEFFF7F3FE3146A2
:101F10003046FFF7D5FE3E483E4CFFF7B5FE314652
:101F20000220FFF7CDFE3C48FFF7AEFE4FF4FA600B
:101F3000FEF760FFFFF7D5FE31463046FFF7C0FEE3
:101F40003648FFF7A1FE31460220FFF7B9FE3448BC
:101F5000FFF79AFE4FF4FA60FEF74CFFFFF7C1FE61
:101F600031463046FFF7ACFE2E48FFF78DFE314676
:101F70000220FFF7A5FE2C482C4EFFF785FE4FF4FC
:101F8000FA60FEF737FFFFF7ACFEFFF7A4FE284824
:101F9000FFF77AFEFFF7A2FE2648FFF775FE40F630
:101FA000B830FEF727FFFFF79CFE2846FEF7DCFF60
:101FB0002846FFF74FF864230121306090FBF3F0CF
:101FC000400020600846FFF77BFE2068FFF79CFE7C
:101FD0001948FFF759FE01210220FFF771FE17484B
:101FE000FFF752FE4FF4FA60FEF704FFFFF779FEA9
:101FF000DBE700BF00380240000C02400004024052
:10200000C400002000100240002001400100000F29
:10201000572A0008C0000020662A0008702A00081D
:102020007D2A0008872A0008962A00080C01002053
:10203000A02A0008B02A0008C12A0008C52A000802
:1020400007B50E4B002100915A6C42F480425A644D
:102050005A6C02F480420092009A01911A6C42F08C
:1020600080521A641B6C03F0805301930720019B7C
:10207000FFF78AF803B05DF804FB00BF00380240A8
:1020800010B5044688B01422002103A800F0B0F86F
:102090002268124B9A421ED103F58C330021019124
:1020A0005A6C0F4842F480725A645A6C02F480727F
:1020B0000192019A02911A6B42F001021A631B6BA2
:1020C00003F001030293029B0123039303A903235B
:1020D0000493FFF7B5F808B010BD00BF0020014021
:1020E000000002407047FEE7FEE7FEE7FEE77047AC
:1020F00070477047FEF76CBE08B50A4B1968024678
:1021000009B9094919601868694602448A4206D922
:1021100000F044F80C2303604FF0FF3008BD1A6054
:1021200008BD00BFB000002014010020054BD3F80B
:10213000882042F47002C3F888204FF000629A6051
:10214000704700BF00ED00E0DFF834D0002103E06D
:102150000C4B5B58435004310B480C4B42189A42CD
:10216000F6D30B4A02E0002342F8043B094B9A42A3
:10217000F9D3FFF7DBFF00F017F8FFF71DFE7047FC
:1021800000000220302B0008000000207400002016
:102190007400002014010020FEE70000014B1868C5
:1021A000704700BF1000002070B50D4E0D4CA41BF1
:1021B000A4100025A54209D10B4E0C4C00F03EFCAA
:1021C000A41BA4100025A54205D170BD56F82530EA
:1021D00098470135EEE756F8253098470135F2E784
:1021E000282B0008282B0008282B00082C2B00087F
:1021F00002440346934200D1704703F8011BF9E7FC
:102200000EB400B59CB04FF402711DABADF81410C4
:10221000029006906FF000410A48049107914FF632
:10222000FF7153F8042BADF816100068019302A952
:1022300000F066F8029B00221A701CB05DF804EBF7
:1022400003B07047100000202DE9F0478E689E42D1
:1022500082460C469146984635D88A8912F4906F8A
:1022600031D0256809696F1A6569022305EB4505B8
:1022700095FBF3F508F101033B449D4238BF1D4631
:10228000530531D5294600F039FB064650B90C23D9
:10229000CAF80030A38943F04003A3814FF0FF3018
:1022A000BDE8F0873A46216900F0B4FAA38923F427
:1022B000906343F08003A381266165613E44ED1B7A
:1022C0002660A5604646464528BF464632464946F2
:1022D000206800F0AAFAA3689B1BA36023681E4431
:1022E00026600020BDE8F0872A4600F065FB064620
:1022F0000028E1D12169504600F0B2FAC7E700009A
:102300002DE9F04F9DB0804603938B891C060D4646
:1023100016460FD50B696BB9402100F0EFFA286023
:10232000286128B90C23C8F800304FF0FF30C5E011
:1023300040236B610023099320238DF8293030233B
:102340008DF82A304FF0010B37463C4614F8013B1C
:10235000002B3CD1B7EB060A0BD053463246294638
:102360004046FFF771FF013000F0A380099B534402
:1023700009933B78002B00F09C8000234FF0FF3244
:1023800004930793059206938DF853301A93052210
:1023900021785048FDF71CFF671C049BD8B9D9066B
:1023A00044BF20228DF853201A0744BF2B228DF8FA
:1023B000532022782A2A16D0079A00210A2027467D
:1023C00001343B78303B092B51D9C9B111E0252BA1
:1023D000C0D02746B9E73F4A801A0BFA00F01843ED
:1023E00004903C46D3E7039A111D12680391002A1A
:1023F00001DB079204E0524243F002030792049388
:102400003B782E2B0ED17B782A2B07F1010132D19C
:10241000039B1A1D1B680392002BB8BF4FF0FF33BC
:10242000023705932C4C397803222046FDF7D0FE65
:1024300038B14023001B03FA00F0049B03430493CC
:102440000137397825488DF8281006227E1CFDF7C3
:10245000BFFE002835D0224BFBB9039B073323F086
:10246000070308330393099B4B4409936CE700FB74
:1024700002320121A3E70023059318460A240F46E0
:1024800001313A78303A092A03D9002BCAD0059095
:10249000C8E704FB00200123F1E703AB00932A46C1
:1024A000104B04A94046AFF30080B0F1FF3F8146D6
:1024B000D9D1AB895B063FF538AF09981DB0BDE8AF
:1024C000F08F03AB00932A46064B04A9404600F068
:1024D00081F8EAE7ED2A0008F32A0008F72A000845
:1024E00000000000492200082DE9F04791461F46F0
:1024F0008A680B69DDF820809342B8BF1346C9F89B
:10250000003091F8432006460C4612B10133C9F859
:1025100000302368990642BFD9F800300233C9F869
:102520000030256815F0060507D104F1190AE368A3
:10253000D9F800209B1A9D4229DB94F84330226889
:10254000003318BF012392062ED404F1430239460A
:102550003046C047013021D02368E568D9F8002013
:1025600003F00603042B08BFAD1AA36822690CBF51
:1025700025EAE57500259342C4BF9B1AED184FF07C
:1025800000091A344D451BD10020BDE8F087012316
:10259000524639463046C047013003D14FF0FF3034
:1025A000BDE8F0870135C2E7E1185A1C302081F8F8
:1025B0004300224494F8451082F843100233C4E7E4
:1025C0000123224639463046C0470130E6D009F1A2
:1025D0000109D7E72DE9F04317460A7E85B06E2A38
:1025E000984606460C460C9B01F1430E00F0BC8059
:1025F0001AD8632A2ED00AD8002A00F0C880582A98
:1026000000F08A8004F1420584F842202AE0642A1E
:1026100001D0692AF6D121681A6811F0800F23D001
:10262000111D1960136827E0732A00F0B48008D8E0
:102630006F2A2AD0702AE5D10A6842F020020A6087
:1026400003E0752A21D0782ADCD1782284F845204D
:102650006E4964E01A6801F14205111D19601368A2
:1026600084F842300123A3E011F0400F02F104018D
:102670001960D7D0B2F90030002B03DA2D225B426B
:1026800084F8432062490A2217E02068196810F094
:10269000800F03D0081D18600B6806E010F0400F93
:1026A00001F104001860F7D00B8859496F2A14BF54
:1026B0000A220822002084F843006568A560002DE6
:1026C000C0F29C80206820F004002060002B3FD1E5
:1026D000002D40F095807546082A0BD12368DA0753
:1026E00008D5236962689A42DEBF302305F8013CB1
:1026F00005F1FF35AEEB05032361CDF800803B46C5
:1027000003AA21463046FFF7EFFE013055D14FF0C6
:10271000FF3005B0BDE8F08381F845203C492268D0
:10272000186812F0800F00F104051D6001D00368E5
:1027300002E05506FBD50388D00744BF42F02002D3
:1027400022601BB9226822F0200222601022B1E729
:102750007546B3FBF2F002FB1033CB5C05F8013D8C
:1027600003460028F5D1B7E708681A68496910F0F0
:10277000800F04D0101D18601368196007E010F076
:10278000400F02F1040018601368F6D0198000238E
:1027900023617546B1E71A68111D196015686268F2
:1027A00000212846FDF714FD08B1401B60606368F6
:1027B0002361002384F843309FE723692A46394682
:1027C0003046C0470130A2D023689B0707D50025BB
:1027D00004F11909E368039A9B1A9D4205DBE0683E
:1027E000039B9842B8BF184693E701234A463946EF
:1027F0003046C04701308AD00135EBE7002BA7D126
:102800000B7884F8423004F1420565E70F2B00088D
:10281000FE2A000810B5431E0A44914200D110BDA3
:1028200011F8014B03F8014FF7E7884210B501EBAF
:10283000020303D8421E99420CD110BD9842F9D22E
:102840008118D21AD34200D110BD13F8014D01F8FE
:10285000014DF7E711F8014B02F8014FEBE70000DB
:1028600038B50546002945D051F8043C0C1F002B13
:10287000B8BFE41800F0D6F81F4A1368104633B901
:10288000636014602846BDE8384000F0CCB8A3422D
:102890000CD921686218934204BF1A685B686360B0
:1028A00004BF521822600460ECE713465A680AB16C
:1028B000A242FAD919685818A0420BD120680144E5
:1028C000581882421960DDD1106852685A6001447C
:1028D0001960D7E702D90C232B60D3E720682118B1
:1028E0008A4204BF11685268626004BF09182160FF
:1028F0005C60C7E738BD00BFB400002070B5CD1CD8
:1029000025F0030508350C2D38BF0C25002D064693
:1029100001DBA94203D90C233360002070BD00F015
:1029200081F8234A1468214691B9224C23681BB9C7
:10293000304600F067F820602946304600F062F823
:10294000431C26D10C233360304600F06CF8E4E7DA
:102950000B685B1B1AD40B2B0FD90B60CD50CC1816
:10296000304600F060F804F10B00231D20F0070052
:10297000C31A1BD05A42E25070BD8C420DBF63682F
:102980004B686360136018BF0C46E9E70C46496862
:10299000CAE7C41C24F00304A04205D0211A304623
:1029A00000F030F80130CDD02560D9E770BD00BF10
:1029B000B4000020B8000020F8B5074614460E46C3
:1029C00021B91146BDE8F840FFF798BF22B9FFF7DB
:1029D00047FF25462846F8BD00F026F884420FD967
:1029E00021463846FFF78AFF05460028F2D03146D7
:1029F0002246FFF70FFF31463846FFF731FFE9E780
:102A00003546E7E738B5064C0023054608462360FF
:102A1000FFF772FB431C02D1236803B12B6038BD62
:102A2000100100207047704751F8040C0028A0F1F5
:102A30000400BCBF0B58C01870470000F8B500BFB9
:102A4000F8BC08BC9E467047F8B500BFF8BC08BC8F
:042A50009E467047E7
:102A54002564004D7568616D6D65642044656E691B
:102A64007A0031363130303530333400496C617995
:102A74006461204D6574696E003136313030363210
:102A84003037004D65686D657420426F7A6B7572DE
:102A940074003134313030353033320044555A43C8
:102AA4004520554E492E2032303230004D69637234
:102AB4006F70726F636573736F72203200206B578F
:102AC4000047554E455320452E204F4C43554D55F8
:102AD40000000000000000000001020304060708D3
:102AE400090000000001020304232D302B2000689C
:102AF4006C4C0065666745464700303132333435E7
:102B04003637383941424344454600303132333454
:0C2B14003536373839616263646566004D
:082B200054DFFF7F01000000FB
:042B2800B5010008EB
:042B2C00910100080B
:102B300001000000100000000F3801000024F40024
:102B40001400002000000000000000000000000051
:102B50000000000000000000000000000000000075
:102B60000000000000000000000000000000000065
:102B70000000000000000000000000000000000055
:102B80000000000000000000000000000000000045
:102B90000000000000000000000000000000000035
:042BA0000000000031
:040000050800214985
:00000001FF
